{
	"contracts/DigitalSign.sol": {
		"DigitalSignature": {
			"abi": [
				{
					"anonymous": false,
					"inputs": [
						{
							"indexed": true,
							"internalType": "address",
							"name": "signer",
							"type": "address"
						},
						{
							"indexed": true,
							"internalType": "bytes32",
							"name": "documentHash",
							"type": "bytes32"
						},
						{
							"indexed": false,
							"internalType": "uint256",
							"name": "timestamp",
							"type": "uint256"
						}
					],
					"name": "DocumentSigned",
					"type": "event"
				},
				{
					"inputs": [
						{
							"internalType": "bytes32",
							"name": "",
							"type": "bytes32"
						}
					],
					"name": "documents",
					"outputs": [
						{
							"internalType": "address",
							"name": "signer",
							"type": "address"
						},
						{
							"internalType": "uint256",
							"name": "timestamp",
							"type": "uint256"
						}
					],
					"stateMutability": "view",
					"type": "function"
				},
				{
					"inputs": [
						{
							"internalType": "bytes32",
							"name": "_documentHash",
							"type": "bytes32"
						}
					],
					"name": "signDocument",
					"outputs": [],
					"stateMutability": "nonpayable",
					"type": "function"
				},
				{
					"inputs": [
						{
							"internalType": "bytes32",
							"name": "_documentHash",
							"type": "bytes32"
						}
					],
					"name": "verifyDocument",
					"outputs": [
						{
							"internalType": "address",
							"name": "signer",
							"type": "address"
						},
						{
							"internalType": "uint256",
							"name": "timestamp",
							"type": "uint256"
						}
					],
					"stateMutability": "view",
					"type": "function"
				}
			],
			"devdoc": {
				"kind": "dev",
				"methods": {
					"signDocument(bytes32)": {
						"details": "Sign a document by providing its hash.",
						"params": {
							"_documentHash": "The hash of the document to be signed."
						}
					},
					"verifyDocument(bytes32)": {
						"details": "Verify if a document is signed and retrieve signer information.",
						"params": {
							"_documentHash": "The hash of the document to verify."
						},
						"returns": {
							"signer": "The address of the signer.",
							"timestamp": "The timestamp when the document was signed."
						}
					}
				},
				"version": 1
			},
			"evm": {
				"assembly": "    /* \"contracts/DigitalSign.sol\":57:1550  contract DigitalSignature {... */\n  mstore(0x40, 0x80)\n  callvalue\n  dup1\n  iszero\n  tag_1\n  jumpi\n  0x00\n  dup1\n  revert\ntag_1:\n  pop\n  dataSize(sub_0)\n  dup1\n  dataOffset(sub_0)\n  0x00\n  codecopy\n  0x00\n  return\nstop\n\nsub_0: assembly {\n        /* \"contracts/DigitalSign.sol\":57:1550  contract DigitalSignature {... */\n      mstore(0x40, 0x80)\n      callvalue\n      dup1\n      iszero\n      tag_1\n      jumpi\n      0x00\n      dup1\n      revert\n    tag_1:\n      pop\n      jumpi(tag_2, lt(calldatasize, 0x04))\n      shr(0xe0, calldataload(0x00))\n      dup1\n      0x166cba38\n      eq\n      tag_3\n      jumpi\n      dup1\n      0x2b2805db\n      eq\n      tag_4\n      jumpi\n      dup1\n      0xfe35089f\n      eq\n      tag_5\n      jumpi\n    tag_2:\n      0x00\n      dup1\n      revert\n        /* \"contracts/DigitalSign.sol\":566:976  function signDocument(bytes32 _documentHash) public {... */\n    tag_3:\n      tag_6\n      0x04\n      dup1\n      calldatasize\n      sub\n      dup2\n      add\n      swap1\n      tag_7\n      swap2\n      swap1\n      tag_8\n      jump\t// in\n    tag_7:\n      tag_9\n      jump\t// in\n    tag_6:\n      stop\n        /* \"contracts/DigitalSign.sol\":380:425  mapping(bytes32 => Document) public documents */\n    tag_4:\n      tag_10\n      0x04\n      dup1\n      calldatasize\n      sub\n      dup2\n      add\n      swap1\n      tag_11\n      swap2\n      swap1\n      tag_8\n      jump\t// in\n    tag_11:\n      tag_12\n      jump\t// in\n    tag_10:\n      mload(0x40)\n      tag_13\n      swap3\n      swap2\n      swap1\n      tag_14\n      jump\t// in\n    tag_13:\n      mload(0x40)\n      dup1\n      swap2\n      sub\n      swap1\n      return\n        /* \"contracts/DigitalSign.sol\":1256:1548  function verifyDocument(bytes32 _documentHash) public view returns (address signer, uint256 timestamp) {... */\n    tag_5:\n      tag_15\n      0x04\n      dup1\n      calldatasize\n      sub\n      dup2\n      add\n      swap1\n      tag_16\n      swap2\n      swap1\n      tag_8\n      jump\t// in\n    tag_16:\n      tag_17\n      jump\t// in\n    tag_15:\n      mload(0x40)\n      tag_18\n      swap3\n      swap2\n      swap1\n      tag_14\n      jump\t// in\n    tag_18:\n      mload(0x40)\n      dup1\n      swap2\n      sub\n      swap1\n      return\n        /* \"contracts/DigitalSign.sol\":566:976  function signDocument(bytes32 _documentHash) public {... */\n    tag_9:\n        /* \"contracts/DigitalSign.sol\":653:654  0 */\n      0x00\n        /* \"contracts/DigitalSign.sol\":636:654  _documentHash != 0 */\n      dup1\n      shl\n        /* \"contracts/DigitalSign.sol\":636:649  _documentHash */\n      dup2\n        /* \"contracts/DigitalSign.sol\":636:654  _documentHash != 0 */\n      sub\n        /* \"contracts/DigitalSign.sol\":628:680  require(_documentHash != 0, \"Invalid document hash\") */\n      tag_20\n      jumpi\n      mload(0x40)\n      0x08c379a000000000000000000000000000000000000000000000000000000000\n      dup2\n      mstore\n      0x04\n      add\n      tag_21\n      swap1\n      tag_22\n      jump\t// in\n    tag_21:\n      mload(0x40)\n      dup1\n      swap2\n      sub\n      swap1\n      revert\n    tag_20:\n        /* \"contracts/DigitalSign.sol\":736:737  0 */\n      0x00\n        /* \"contracts/DigitalSign.sol\":698:707  documents */\n      dup1\n        /* \"contracts/DigitalSign.sol\":698:722  documents[_documentHash] */\n      0x00\n        /* \"contracts/DigitalSign.sol\":708:721  _documentHash */\n      dup4\n        /* \"contracts/DigitalSign.sol\":698:722  documents[_documentHash] */\n      dup2\n      mstore\n      0x20\n      add\n      swap1\n      dup2\n      mstore\n      0x20\n      add\n      0x00\n      keccak256\n        /* \"contracts/DigitalSign.sol\":698:732  documents[_documentHash].timestamp */\n      0x01\n      add\n      sload\n        /* \"contracts/DigitalSign.sol\":698:737  documents[_documentHash].timestamp == 0 */\n      eq\n        /* \"contracts/DigitalSign.sol\":690:765  require(documents[_documentHash].timestamp == 0, \"Document already signed\") */\n      tag_23\n      jumpi\n      mload(0x40)\n      0x08c379a000000000000000000000000000000000000000000000000000000000\n      dup2\n      mstore\n      0x04\n      add\n      tag_24\n      swap1\n      tag_25\n      jump\t// in\n    tag_24:\n      mload(0x40)\n      dup1\n      swap2\n      sub\n      swap1\n      revert\n    tag_23:\n        /* \"contracts/DigitalSign.sol\":803:895  Document({... */\n      mload(0x40)\n      dup1\n      0x40\n      add\n      0x40\n      mstore\n      dup1\n        /* \"contracts/DigitalSign.sol\":834:844  msg.sender */\n      caller\n        /* \"contracts/DigitalSign.sol\":803:895  Document({... */\n      0xffffffffffffffffffffffffffffffffffffffff\n      and\n      dup2\n      mstore\n      0x20\n      add\n        /* \"contracts/DigitalSign.sol\":869:884  block.timestamp */\n      timestamp\n        /* \"contracts/DigitalSign.sol\":803:895  Document({... */\n      dup2\n      mstore\n      pop\n        /* \"contracts/DigitalSign.sol\":776:785  documents */\n      0x00\n        /* \"contracts/DigitalSign.sol\":776:800  documents[_documentHash] */\n      dup1\n        /* \"contracts/DigitalSign.sol\":786:799  _documentHash */\n      dup4\n        /* \"contracts/DigitalSign.sol\":776:800  documents[_documentHash] */\n      dup2\n      mstore\n      0x20\n      add\n      swap1\n      dup2\n      mstore\n      0x20\n      add\n      0x00\n      keccak256\n        /* \"contracts/DigitalSign.sol\":776:895  documents[_documentHash] = Document({... */\n      0x00\n      dup3\n      add\n      mload\n      dup2\n      0x00\n      add\n      exp(0x0100, 0x00)\n      dup2\n      sload\n      dup2\n      0xffffffffffffffffffffffffffffffffffffffff\n      mul\n      not\n      and\n      swap1\n      dup4\n      0xffffffffffffffffffffffffffffffffffffffff\n      and\n      mul\n      or\n      swap1\n      sstore\n      pop\n      0x20\n      dup3\n      add\n      mload\n      dup2\n      0x01\n      add\n      sstore\n      swap1\n      pop\n      pop\n        /* \"contracts/DigitalSign.sol\":938:951  _documentHash */\n      dup1\n        /* \"contracts/DigitalSign.sol\":926:936  msg.sender */\n      caller\n        /* \"contracts/DigitalSign.sol\":911:969  DocumentSigned(msg.sender, _documentHash, block.timestamp) */\n      0xffffffffffffffffffffffffffffffffffffffff\n      and\n      0x5523c64caf0be0edf50a349a2c2bc2685c38256701957cb43dd578a9e22e109c\n        /* \"contracts/DigitalSign.sol\":953:968  block.timestamp */\n      timestamp\n        /* \"contracts/DigitalSign.sol\":911:969  DocumentSigned(msg.sender, _documentHash, block.timestamp) */\n      mload(0x40)\n      tag_26\n      swap2\n      swap1\n      tag_27\n      jump\t// in\n    tag_26:\n      mload(0x40)\n      dup1\n      swap2\n      sub\n      swap1\n      log3\n        /* \"contracts/DigitalSign.sol\":566:976  function signDocument(bytes32 _documentHash) public {... */\n      pop\n      jump\t// out\n        /* \"contracts/DigitalSign.sol\":380:425  mapping(bytes32 => Document) public documents */\n    tag_12:\n      mstore(0x20, 0x00)\n      dup1\n      0x00\n      mstore\n      keccak256(0x00, 0x40)\n      0x00\n      swap2\n      pop\n      swap1\n      pop\n      dup1\n      0x00\n      add\n      0x00\n      swap1\n      sload\n      swap1\n      0x0100\n      exp\n      swap1\n      div\n      0xffffffffffffffffffffffffffffffffffffffff\n      and\n      swap1\n      dup1\n      0x01\n      add\n      sload\n      swap1\n      pop\n      dup3\n      jump\t// out\n        /* \"contracts/DigitalSign.sol\":1256:1548  function verifyDocument(bytes32 _documentHash) public view returns (address signer, uint256 timestamp) {... */\n    tag_17:\n        /* \"contracts/DigitalSign.sol\":1324:1338  address signer */\n      0x00\n        /* \"contracts/DigitalSign.sol\":1340:1357  uint256 timestamp */\n      dup1\n        /* \"contracts/DigitalSign.sol\":1415:1416  0 */\n      0x00\n        /* \"contracts/DigitalSign.sol\":1377:1386  documents */\n      dup1\n        /* \"contracts/DigitalSign.sol\":1377:1401  documents[_documentHash] */\n      0x00\n        /* \"contracts/DigitalSign.sol\":1387:1400  _documentHash */\n      dup6\n        /* \"contracts/DigitalSign.sol\":1377:1401  documents[_documentHash] */\n      dup2\n      mstore\n      0x20\n      add\n      swap1\n      dup2\n      mstore\n      0x20\n      add\n      0x00\n      keccak256\n        /* \"contracts/DigitalSign.sol\":1377:1411  documents[_documentHash].timestamp */\n      0x01\n      add\n      sload\n        /* \"contracts/DigitalSign.sol\":1377:1416  documents[_documentHash].timestamp != 0 */\n      sub\n        /* \"contracts/DigitalSign.sol\":1369:1440  require(documents[_documentHash].timestamp != 0, \"Document not signed\") */\n      tag_29\n      jumpi\n      mload(0x40)\n      0x08c379a000000000000000000000000000000000000000000000000000000000\n      dup2\n      mstore\n      0x04\n      add\n      tag_30\n      swap1\n      tag_31\n      jump\t// in\n    tag_30:\n      mload(0x40)\n      dup1\n      swap2\n      sub\n      swap1\n      revert\n    tag_29:\n        /* \"contracts/DigitalSign.sol\":1451:1470  Document memory doc */\n      0x00\n        /* \"contracts/DigitalSign.sol\":1473:1482  documents */\n      dup1\n        /* \"contracts/DigitalSign.sol\":1473:1497  documents[_documentHash] */\n      0x00\n        /* \"contracts/DigitalSign.sol\":1483:1496  _documentHash */\n      dup6\n        /* \"contracts/DigitalSign.sol\":1473:1497  documents[_documentHash] */\n      dup2\n      mstore\n      0x20\n      add\n      swap1\n      dup2\n      mstore\n      0x20\n      add\n      0x00\n      keccak256\n        /* \"contracts/DigitalSign.sol\":1451:1497  Document memory doc = documents[_documentHash] */\n      mload(0x40)\n      dup1\n      0x40\n      add\n      0x40\n      mstore\n      swap1\n      dup2\n      0x00\n      dup3\n      add\n      0x00\n      swap1\n      sload\n      swap1\n      0x0100\n      exp\n      swap1\n      div\n      0xffffffffffffffffffffffffffffffffffffffff\n      and\n      0xffffffffffffffffffffffffffffffffffffffff\n      and\n      0xffffffffffffffffffffffffffffffffffffffff\n      and\n      dup2\n      mstore\n      0x20\n      add\n      0x01\n      dup3\n      add\n      sload\n      dup2\n      mstore\n      pop\n      pop\n      swap1\n      pop\n        /* \"contracts/DigitalSign.sol\":1515:1518  doc */\n      dup1\n        /* \"contracts/DigitalSign.sol\":1515:1525  doc.signer */\n      0x00\n      add\n      mload\n        /* \"contracts/DigitalSign.sol\":1527:1530  doc */\n      dup2\n        /* \"contracts/DigitalSign.sol\":1527:1540  doc.timestamp */\n      0x20\n      add\n      mload\n        /* \"contracts/DigitalSign.sol\":1507:1541  return (doc.signer, doc.timestamp) */\n      swap3\n      pop\n      swap3\n      pop\n      pop\n        /* \"contracts/DigitalSign.sol\":1256:1548  function verifyDocument(bytes32 _documentHash) public view returns (address signer, uint256 timestamp) {... */\n      swap2\n      pop\n      swap2\n      jump\t// out\n        /* \"#utility.yul\":88:205   */\n    tag_33:\n        /* \"#utility.yul\":197:198   */\n      0x00\n        /* \"#utility.yul\":194:195   */\n      dup1\n        /* \"#utility.yul\":187:199   */\n      revert\n        /* \"#utility.yul\":334:411   */\n    tag_35:\n        /* \"#utility.yul\":371:378   */\n      0x00\n        /* \"#utility.yul\":400:405   */\n      dup2\n        /* \"#utility.yul\":389:405   */\n      swap1\n      pop\n        /* \"#utility.yul\":334:411   */\n      swap2\n      swap1\n      pop\n      jump\t// out\n        /* \"#utility.yul\":417:539   */\n    tag_36:\n        /* \"#utility.yul\":490:514   */\n      tag_56\n        /* \"#utility.yul\":508:513   */\n      dup2\n        /* \"#utility.yul\":490:514   */\n      tag_35\n      jump\t// in\n    tag_56:\n        /* \"#utility.yul\":483:488   */\n      dup2\n        /* \"#utility.yul\":480:515   */\n      eq\n        /* \"#utility.yul\":470:533   */\n      tag_57\n      jumpi\n        /* \"#utility.yul\":529:530   */\n      0x00\n        /* \"#utility.yul\":526:527   */\n      dup1\n        /* \"#utility.yul\":519:531   */\n      revert\n        /* \"#utility.yul\":470:533   */\n    tag_57:\n        /* \"#utility.yul\":417:539   */\n      pop\n      jump\t// out\n        /* \"#utility.yul\":545:684   */\n    tag_37:\n        /* \"#utility.yul\":591:596   */\n      0x00\n        /* \"#utility.yul\":629:635   */\n      dup2\n        /* \"#utility.yul\":616:636   */\n      calldataload\n        /* \"#utility.yul\":607:636   */\n      swap1\n      pop\n        /* \"#utility.yul\":645:678   */\n      tag_59\n        /* \"#utility.yul\":672:677   */\n      dup2\n        /* \"#utility.yul\":645:678   */\n      tag_36\n      jump\t// in\n    tag_59:\n        /* \"#utility.yul\":545:684   */\n      swap3\n      swap2\n      pop\n      pop\n      jump\t// out\n        /* \"#utility.yul\":690:1019   */\n    tag_8:\n        /* \"#utility.yul\":749:755   */\n      0x00\n        /* \"#utility.yul\":798:800   */\n      0x20\n        /* \"#utility.yul\":786:795   */\n      dup3\n        /* \"#utility.yul\":777:784   */\n      dup5\n        /* \"#utility.yul\":773:796   */\n      sub\n        /* \"#utility.yul\":769:801   */\n      slt\n        /* \"#utility.yul\":766:885   */\n      iszero\n      tag_61\n      jumpi\n        /* \"#utility.yul\":804:883   */\n      tag_62\n      tag_33\n      jump\t// in\n    tag_62:\n        /* \"#utility.yul\":766:885   */\n    tag_61:\n        /* \"#utility.yul\":924:925   */\n      0x00\n        /* \"#utility.yul\":949:1002   */\n      tag_63\n        /* \"#utility.yul\":994:1001   */\n      dup5\n        /* \"#utility.yul\":985:991   */\n      dup3\n        /* \"#utility.yul\":974:983   */\n      dup6\n        /* \"#utility.yul\":970:992   */\n      add\n        /* \"#utility.yul\":949:1002   */\n      tag_37\n      jump\t// in\n    tag_63:\n        /* \"#utility.yul\":939:1002   */\n      swap2\n      pop\n        /* \"#utility.yul\":895:1012   */\n      pop\n        /* \"#utility.yul\":690:1019   */\n      swap3\n      swap2\n      pop\n      pop\n      jump\t// out\n        /* \"#utility.yul\":1025:1151   */\n    tag_38:\n        /* \"#utility.yul\":1062:1069   */\n      0x00\n        /* \"#utility.yul\":1102:1144   */\n      0xffffffffffffffffffffffffffffffffffffffff\n        /* \"#utility.yul\":1095:1100   */\n      dup3\n        /* \"#utility.yul\":1091:1145   */\n      and\n        /* \"#utility.yul\":1080:1145   */\n      swap1\n      pop\n        /* \"#utility.yul\":1025:1151   */\n      swap2\n      swap1\n      pop\n      jump\t// out\n        /* \"#utility.yul\":1157:1253   */\n    tag_39:\n        /* \"#utility.yul\":1194:1201   */\n      0x00\n        /* \"#utility.yul\":1223:1247   */\n      tag_66\n        /* \"#utility.yul\":1241:1246   */\n      dup3\n        /* \"#utility.yul\":1223:1247   */\n      tag_38\n      jump\t// in\n    tag_66:\n        /* \"#utility.yul\":1212:1247   */\n      swap1\n      pop\n        /* \"#utility.yul\":1157:1253   */\n      swap2\n      swap1\n      pop\n      jump\t// out\n        /* \"#utility.yul\":1259:1377   */\n    tag_40:\n        /* \"#utility.yul\":1346:1370   */\n      tag_68\n        /* \"#utility.yul\":1364:1369   */\n      dup2\n        /* \"#utility.yul\":1346:1370   */\n      tag_39\n      jump\t// in\n    tag_68:\n        /* \"#utility.yul\":1341:1344   */\n      dup3\n        /* \"#utility.yul\":1334:1371   */\n      mstore\n        /* \"#utility.yul\":1259:1377   */\n      pop\n      pop\n      jump\t// out\n        /* \"#utility.yul\":1383:1460   */\n    tag_41:\n        /* \"#utility.yul\":1420:1427   */\n      0x00\n        /* \"#utility.yul\":1449:1454   */\n      dup2\n        /* \"#utility.yul\":1438:1454   */\n      swap1\n      pop\n        /* \"#utility.yul\":1383:1460   */\n      swap2\n      swap1\n      pop\n      jump\t// out\n        /* \"#utility.yul\":1466:1584   */\n    tag_42:\n        /* \"#utility.yul\":1553:1577   */\n      tag_71\n        /* \"#utility.yul\":1571:1576   */\n      dup2\n        /* \"#utility.yul\":1553:1577   */\n      tag_41\n      jump\t// in\n    tag_71:\n        /* \"#utility.yul\":1548:1551   */\n      dup3\n        /* \"#utility.yul\":1541:1578   */\n      mstore\n        /* \"#utility.yul\":1466:1584   */\n      pop\n      pop\n      jump\t// out\n        /* \"#utility.yul\":1590:1922   */\n    tag_14:\n        /* \"#utility.yul\":1711:1715   */\n      0x00\n        /* \"#utility.yul\":1749:1751   */\n      0x40\n        /* \"#utility.yul\":1738:1747   */\n      dup3\n        /* \"#utility.yul\":1734:1752   */\n      add\n        /* \"#utility.yul\":1726:1752   */\n      swap1\n      pop\n        /* \"#utility.yul\":1762:1833   */\n      tag_73\n        /* \"#utility.yul\":1830:1831   */\n      0x00\n        /* \"#utility.yul\":1819:1828   */\n      dup4\n        /* \"#utility.yul\":1815:1832   */\n      add\n        /* \"#utility.yul\":1806:1812   */\n      dup6\n        /* \"#utility.yul\":1762:1833   */\n      tag_40\n      jump\t// in\n    tag_73:\n        /* \"#utility.yul\":1843:1915   */\n      tag_74\n        /* \"#utility.yul\":1911:1913   */\n      0x20\n        /* \"#utility.yul\":1900:1909   */\n      dup4\n        /* \"#utility.yul\":1896:1914   */\n      add\n        /* \"#utility.yul\":1887:1893   */\n      dup5\n        /* \"#utility.yul\":1843:1915   */\n      tag_42\n      jump\t// in\n    tag_74:\n        /* \"#utility.yul\":1590:1922   */\n      swap4\n      swap3\n      pop\n      pop\n      pop\n      jump\t// out\n        /* \"#utility.yul\":1928:2097   */\n    tag_43:\n        /* \"#utility.yul\":2012:2023   */\n      0x00\n        /* \"#utility.yul\":2046:2052   */\n      dup3\n        /* \"#utility.yul\":2041:2044   */\n      dup3\n        /* \"#utility.yul\":2034:2053   */\n      mstore\n        /* \"#utility.yul\":2086:2090   */\n      0x20\n        /* \"#utility.yul\":2081:2084   */\n      dup3\n        /* \"#utility.yul\":2077:2091   */\n      add\n        /* \"#utility.yul\":2062:2091   */\n      swap1\n      pop\n        /* \"#utility.yul\":1928:2097   */\n      swap3\n      swap2\n      pop\n      pop\n      jump\t// out\n        /* \"#utility.yul\":2103:2274   */\n    tag_44:\n        /* \"#utility.yul\":2243:2266   */\n      0x496e76616c696420646f63756d656e7420686173680000000000000000000000\n        /* \"#utility.yul\":2239:2240   */\n      0x00\n        /* \"#utility.yul\":2231:2237   */\n      dup3\n        /* \"#utility.yul\":2227:2241   */\n      add\n        /* \"#utility.yul\":2220:2267   */\n      mstore\n        /* \"#utility.yul\":2103:2274   */\n      pop\n      jump\t// out\n        /* \"#utility.yul\":2280:2646   */\n    tag_45:\n        /* \"#utility.yul\":2422:2425   */\n      0x00\n        /* \"#utility.yul\":2443:2510   */\n      tag_78\n        /* \"#utility.yul\":2507:2509   */\n      0x15\n        /* \"#utility.yul\":2502:2505   */\n      dup4\n        /* \"#utility.yul\":2443:2510   */\n      tag_43\n      jump\t// in\n    tag_78:\n        /* \"#utility.yul\":2436:2510   */\n      swap2\n      pop\n        /* \"#utility.yul\":2519:2612   */\n      tag_79\n        /* \"#utility.yul\":2608:2611   */\n      dup3\n        /* \"#utility.yul\":2519:2612   */\n      tag_44\n      jump\t// in\n    tag_79:\n        /* \"#utility.yul\":2637:2639   */\n      0x20\n        /* \"#utility.yul\":2632:2635   */\n      dup3\n        /* \"#utility.yul\":2628:2640   */\n      add\n        /* \"#utility.yul\":2621:2640   */\n      swap1\n      pop\n        /* \"#utility.yul\":2280:2646   */\n      swap2\n      swap1\n      pop\n      jump\t// out\n        /* \"#utility.yul\":2652:3071   */\n    tag_22:\n        /* \"#utility.yul\":2818:2822   */\n      0x00\n        /* \"#utility.yul\":2856:2858   */\n      0x20\n        /* \"#utility.yul\":2845:2854   */\n      dup3\n        /* \"#utility.yul\":2841:2859   */\n      add\n        /* \"#utility.yul\":2833:2859   */\n      swap1\n      pop\n        /* \"#utility.yul\":2905:2914   */\n      dup2\n        /* \"#utility.yul\":2899:2903   */\n      dup2\n        /* \"#utility.yul\":2895:2915   */\n      sub\n        /* \"#utility.yul\":2891:2892   */\n      0x00\n        /* \"#utility.yul\":2880:2889   */\n      dup4\n        /* \"#utility.yul\":2876:2893   */\n      add\n        /* \"#utility.yul\":2869:2916   */\n      mstore\n        /* \"#utility.yul\":2933:3064   */\n      tag_81\n        /* \"#utility.yul\":3059:3063   */\n      dup2\n        /* \"#utility.yul\":2933:3064   */\n      tag_45\n      jump\t// in\n    tag_81:\n        /* \"#utility.yul\":2925:3064   */\n      swap1\n      pop\n        /* \"#utility.yul\":2652:3071   */\n      swap2\n      swap1\n      pop\n      jump\t// out\n        /* \"#utility.yul\":3077:3250   */\n    tag_46:\n        /* \"#utility.yul\":3217:3242   */\n      0x446f63756d656e7420616c7265616479207369676e6564000000000000000000\n        /* \"#utility.yul\":3213:3214   */\n      0x00\n        /* \"#utility.yul\":3205:3211   */\n      dup3\n        /* \"#utility.yul\":3201:3215   */\n      add\n        /* \"#utility.yul\":3194:3243   */\n      mstore\n        /* \"#utility.yul\":3077:3250   */\n      pop\n      jump\t// out\n        /* \"#utility.yul\":3256:3622   */\n    tag_47:\n        /* \"#utility.yul\":3398:3401   */\n      0x00\n        /* \"#utility.yul\":3419:3486   */\n      tag_84\n        /* \"#utility.yul\":3483:3485   */\n      0x17\n        /* \"#utility.yul\":3478:3481   */\n      dup4\n        /* \"#utility.yul\":3419:3486   */\n      tag_43\n      jump\t// in\n    tag_84:\n        /* \"#utility.yul\":3412:3486   */\n      swap2\n      pop\n        /* \"#utility.yul\":3495:3588   */\n      tag_85\n        /* \"#utility.yul\":3584:3587   */\n      dup3\n        /* \"#utility.yul\":3495:3588   */\n      tag_46\n      jump\t// in\n    tag_85:\n        /* \"#utility.yul\":3613:3615   */\n      0x20\n        /* \"#utility.yul\":3608:3611   */\n      dup3\n        /* \"#utility.yul\":3604:3616   */\n      add\n        /* \"#utility.yul\":3597:3616   */\n      swap1\n      pop\n        /* \"#utility.yul\":3256:3622   */\n      swap2\n      swap1\n      pop\n      jump\t// out\n        /* \"#utility.yul\":3628:4047   */\n    tag_25:\n        /* \"#utility.yul\":3794:3798   */\n      0x00\n        /* \"#utility.yul\":3832:3834   */\n      0x20\n        /* \"#utility.yul\":3821:3830   */\n      dup3\n        /* \"#utility.yul\":3817:3835   */\n      add\n        /* \"#utility.yul\":3809:3835   */\n      swap1\n      pop\n        /* \"#utility.yul\":3881:3890   */\n      dup2\n        /* \"#utility.yul\":3875:3879   */\n      dup2\n        /* \"#utility.yul\":3871:3891   */\n      sub\n        /* \"#utility.yul\":3867:3868   */\n      0x00\n        /* \"#utility.yul\":3856:3865   */\n      dup4\n        /* \"#utility.yul\":3852:3869   */\n      add\n        /* \"#utility.yul\":3845:3892   */\n      mstore\n        /* \"#utility.yul\":3909:4040   */\n      tag_87\n        /* \"#utility.yul\":4035:4039   */\n      dup2\n        /* \"#utility.yul\":3909:4040   */\n      tag_47\n      jump\t// in\n    tag_87:\n        /* \"#utility.yul\":3901:4040   */\n      swap1\n      pop\n        /* \"#utility.yul\":3628:4047   */\n      swap2\n      swap1\n      pop\n      jump\t// out\n        /* \"#utility.yul\":4053:4275   */\n    tag_27:\n        /* \"#utility.yul\":4146:4150   */\n      0x00\n        /* \"#utility.yul\":4184:4186   */\n      0x20\n        /* \"#utility.yul\":4173:4182   */\n      dup3\n        /* \"#utility.yul\":4169:4187   */\n      add\n        /* \"#utility.yul\":4161:4187   */\n      swap1\n      pop\n        /* \"#utility.yul\":4197:4268   */\n      tag_89\n        /* \"#utility.yul\":4265:4266   */\n      0x00\n        /* \"#utility.yul\":4254:4263   */\n      dup4\n        /* \"#utility.yul\":4250:4267   */\n      add\n        /* \"#utility.yul\":4241:4247   */\n      dup5\n        /* \"#utility.yul\":4197:4268   */\n      tag_42\n      jump\t// in\n    tag_89:\n        /* \"#utility.yul\":4053:4275   */\n      swap3\n      swap2\n      pop\n      pop\n      jump\t// out\n        /* \"#utility.yul\":4281:4450   */\n    tag_48:\n        /* \"#utility.yul\":4421:4442   */\n      0x446f63756d656e74206e6f74207369676e656400000000000000000000000000\n        /* \"#utility.yul\":4417:4418   */\n      0x00\n        /* \"#utility.yul\":4409:4415   */\n      dup3\n        /* \"#utility.yul\":4405:4419   */\n      add\n        /* \"#utility.yul\":4398:4443   */\n      mstore\n        /* \"#utility.yul\":4281:4450   */\n      pop\n      jump\t// out\n        /* \"#utility.yul\":4456:4822   */\n    tag_49:\n        /* \"#utility.yul\":4598:4601   */\n      0x00\n        /* \"#utility.yul\":4619:4686   */\n      tag_92\n        /* \"#utility.yul\":4683:4685   */\n      0x13\n        /* \"#utility.yul\":4678:4681   */\n      dup4\n        /* \"#utility.yul\":4619:4686   */\n      tag_43\n      jump\t// in\n    tag_92:\n        /* \"#utility.yul\":4612:4686   */\n      swap2\n      pop\n        /* \"#utility.yul\":4695:4788   */\n      tag_93\n        /* \"#utility.yul\":4784:4787   */\n      dup3\n        /* \"#utility.yul\":4695:4788   */\n      tag_48\n      jump\t// in\n    tag_93:\n        /* \"#utility.yul\":4813:4815   */\n      0x20\n        /* \"#utility.yul\":4808:4811   */\n      dup3\n        /* \"#utility.yul\":4804:4816   */\n      add\n        /* \"#utility.yul\":4797:4816   */\n      swap1\n      pop\n        /* \"#utility.yul\":4456:4822   */\n      swap2\n      swap1\n      pop\n      jump\t// out\n        /* \"#utility.yul\":4828:5247   */\n    tag_31:\n        /* \"#utility.yul\":4994:4998   */\n      0x00\n        /* \"#utility.yul\":5032:5034   */\n      0x20\n        /* \"#utility.yul\":5021:5030   */\n      dup3\n        /* \"#utility.yul\":5017:5035   */\n      add\n        /* \"#utility.yul\":5009:5035   */\n      swap1\n      pop\n        /* \"#utility.yul\":5081:5090   */\n      dup2\n        /* \"#utility.yul\":5075:5079   */\n      dup2\n        /* \"#utility.yul\":5071:5091   */\n      sub\n        /* \"#utility.yul\":5067:5068   */\n      0x00\n        /* \"#utility.yul\":5056:5065   */\n      dup4\n        /* \"#utility.yul\":5052:5069   */\n      add\n        /* \"#utility.yul\":5045:5092   */\n      mstore\n        /* \"#utility.yul\":5109:5240   */\n      tag_95\n        /* \"#utility.yul\":5235:5239   */\n      dup2\n        /* \"#utility.yul\":5109:5240   */\n      tag_49\n      jump\t// in\n    tag_95:\n        /* \"#utility.yul\":5101:5240   */\n      swap1\n      pop\n        /* \"#utility.yul\":4828:5247   */\n      swap2\n      swap1\n      pop\n      jump\t// out\n\n    auxdata: 0xa2646970667358221220dfe97631eb3cdf6439abeabd5f870b006bbf3ecaf0b573f4efae10ac164186fb64736f6c634300081a0033\n}\n",
				"bytecode": {
					"linkReferences": {},
					"object": "6080604052348015600e575f80fd5b506105d38061001c5f395ff3fe608060405234801561000f575f80fd5b506004361061003f575f3560e01c8063166cba38146100435780632b2805db1461005f578063fe35089f14610090575b5f80fd5b61005d60048036038101906100589190610393565b6100c1565b005b61007960048036038101906100749190610393565b610238565b604051610087929190610415565b60405180910390f35b6100aa60048036038101906100a59190610393565b610276565b6040516100b8929190610415565b60405180910390f35b5f801b8103610105576040517f08c379a00000000000000000000000000000000000000000000000000000000081526004016100fc90610496565b60405180910390fd5b5f805f8381526020019081526020015f20600101541461015a576040517f08c379a0000000000000000000000000000000000000000000000000000000008152600401610151906104fe565b60405180910390fd5b60405180604001604052803373ffffffffffffffffffffffffffffffffffffffff168152602001428152505f808381526020019081526020015f205f820151815f015f6101000a81548173ffffffffffffffffffffffffffffffffffffffff021916908373ffffffffffffffffffffffffffffffffffffffff16021790555060208201518160010155905050803373ffffffffffffffffffffffffffffffffffffffff167f5523c64caf0be0edf50a349a2c2bc2685c38256701957cb43dd578a9e22e109c4260405161022d919061051c565b60405180910390a350565b5f602052805f5260405f205f91509050805f015f9054906101000a900473ffffffffffffffffffffffffffffffffffffffff16908060010154905082565b5f805f805f8581526020019081526020015f2060010154036102cd576040517f08c379a00000000000000000000000000000000000000000000000000000000081526004016102c49061057f565b60405180910390fd5b5f805f8581526020019081526020015f206040518060400160405290815f82015f9054906101000a900473ffffffffffffffffffffffffffffffffffffffff1673ffffffffffffffffffffffffffffffffffffffff1673ffffffffffffffffffffffffffffffffffffffff1681526020016001820154815250509050805f015181602001519250925050915091565b5f80fd5b5f819050919050565b61037281610360565b811461037c575f80fd5b50565b5f8135905061038d81610369565b92915050565b5f602082840312156103a8576103a761035c565b5b5f6103b58482850161037f565b91505092915050565b5f73ffffffffffffffffffffffffffffffffffffffff82169050919050565b5f6103e7826103be565b9050919050565b6103f7816103dd565b82525050565b5f819050919050565b61040f816103fd565b82525050565b5f6040820190506104285f8301856103ee565b6104356020830184610406565b9392505050565b5f82825260208201905092915050565b7f496e76616c696420646f63756d656e74206861736800000000000000000000005f82015250565b5f61048060158361043c565b915061048b8261044c565b602082019050919050565b5f6020820190508181035f8301526104ad81610474565b9050919050565b7f446f63756d656e7420616c7265616479207369676e65640000000000000000005f82015250565b5f6104e860178361043c565b91506104f3826104b4565b602082019050919050565b5f6020820190508181035f830152610515816104dc565b9050919050565b5f60208201905061052f5f830184610406565b92915050565b7f446f63756d656e74206e6f74207369676e6564000000000000000000000000005f82015250565b5f61056960138361043c565b915061057482610535565b602082019050919050565b5f6020820190508181035f8301526105968161055d565b905091905056fea2646970667358221220dfe97631eb3cdf6439abeabd5f870b006bbf3ecaf0b573f4efae10ac164186fb64736f6c634300081a0033",
					"opcodes": "PUSH1 0x80 PUSH1 0x40 MSTORE CALLVALUE DUP1 ISZERO PUSH1 0xE JUMPI PUSH0 DUP1 REVERT JUMPDEST POP PUSH2 0x5D3 DUP1 PUSH2 0x1C PUSH0 CODECOPY PUSH0 RETURN INVALID PUSH1 0x80 PUSH1 0x40 MSTORE CALLVALUE DUP1 ISZERO PUSH2 0xF JUMPI PUSH0 DUP1 REVERT JUMPDEST POP PUSH1 0x4 CALLDATASIZE LT PUSH2 0x3F JUMPI PUSH0 CALLDATALOAD PUSH1 0xE0 SHR DUP1 PUSH4 0x166CBA38 EQ PUSH2 0x43 JUMPI DUP1 PUSH4 0x2B2805DB EQ PUSH2 0x5F JUMPI DUP1 PUSH4 0xFE35089F EQ PUSH2 0x90 JUMPI JUMPDEST PUSH0 DUP1 REVERT JUMPDEST PUSH2 0x5D PUSH1 0x4 DUP1 CALLDATASIZE SUB DUP2 ADD SWAP1 PUSH2 0x58 SWAP2 SWAP1 PUSH2 0x393 JUMP JUMPDEST PUSH2 0xC1 JUMP JUMPDEST STOP JUMPDEST PUSH2 0x79 PUSH1 0x4 DUP1 CALLDATASIZE SUB DUP2 ADD SWAP1 PUSH2 0x74 SWAP2 SWAP1 PUSH2 0x393 JUMP JUMPDEST PUSH2 0x238 JUMP JUMPDEST PUSH1 0x40 MLOAD PUSH2 0x87 SWAP3 SWAP2 SWAP1 PUSH2 0x415 JUMP JUMPDEST PUSH1 0x40 MLOAD DUP1 SWAP2 SUB SWAP1 RETURN JUMPDEST PUSH2 0xAA PUSH1 0x4 DUP1 CALLDATASIZE SUB DUP2 ADD SWAP1 PUSH2 0xA5 SWAP2 SWAP1 PUSH2 0x393 JUMP JUMPDEST PUSH2 0x276 JUMP JUMPDEST PUSH1 0x40 MLOAD PUSH2 0xB8 SWAP3 SWAP2 SWAP1 PUSH2 0x415 JUMP JUMPDEST PUSH1 0x40 MLOAD DUP1 SWAP2 SUB SWAP1 RETURN JUMPDEST PUSH0 DUP1 SHL DUP2 SUB PUSH2 0x105 JUMPI PUSH1 0x40 MLOAD PUSH32 0x8C379A000000000000000000000000000000000000000000000000000000000 DUP2 MSTORE PUSH1 0x4 ADD PUSH2 0xFC SWAP1 PUSH2 0x496 JUMP JUMPDEST PUSH1 0x40 MLOAD DUP1 SWAP2 SUB SWAP1 REVERT JUMPDEST PUSH0 DUP1 PUSH0 DUP4 DUP2 MSTORE PUSH1 0x20 ADD SWAP1 DUP2 MSTORE PUSH1 0x20 ADD PUSH0 KECCAK256 PUSH1 0x1 ADD SLOAD EQ PUSH2 0x15A JUMPI PUSH1 0x40 MLOAD PUSH32 0x8C379A000000000000000000000000000000000000000000000000000000000 DUP2 MSTORE PUSH1 0x4 ADD PUSH2 0x151 SWAP1 PUSH2 0x4FE JUMP JUMPDEST PUSH1 0x40 MLOAD DUP1 SWAP2 SUB SWAP1 REVERT JUMPDEST PUSH1 0x40 MLOAD DUP1 PUSH1 0x40 ADD PUSH1 0x40 MSTORE DUP1 CALLER PUSH20 0xFFFFFFFFFFFFFFFFFFFFFFFFFFFFFFFFFFFFFFFF AND DUP2 MSTORE PUSH1 0x20 ADD TIMESTAMP DUP2 MSTORE POP PUSH0 DUP1 DUP4 DUP2 MSTORE PUSH1 0x20 ADD SWAP1 DUP2 MSTORE PUSH1 0x20 ADD PUSH0 KECCAK256 PUSH0 DUP3 ADD MLOAD DUP2 PUSH0 ADD PUSH0 PUSH2 0x100 EXP DUP2 SLOAD DUP2 PUSH20 0xFFFFFFFFFFFFFFFFFFFFFFFFFFFFFFFFFFFFFFFF MUL NOT AND SWAP1 DUP4 PUSH20 0xFFFFFFFFFFFFFFFFFFFFFFFFFFFFFFFFFFFFFFFF AND MUL OR SWAP1 SSTORE POP PUSH1 0x20 DUP3 ADD MLOAD DUP2 PUSH1 0x1 ADD SSTORE SWAP1 POP POP DUP1 CALLER PUSH20 0xFFFFFFFFFFFFFFFFFFFFFFFFFFFFFFFFFFFFFFFF AND PUSH32 0x5523C64CAF0BE0EDF50A349A2C2BC2685C38256701957CB43DD578A9E22E109C TIMESTAMP PUSH1 0x40 MLOAD PUSH2 0x22D SWAP2 SWAP1 PUSH2 0x51C JUMP JUMPDEST PUSH1 0x40 MLOAD DUP1 SWAP2 SUB SWAP1 LOG3 POP JUMP JUMPDEST PUSH0 PUSH1 0x20 MSTORE DUP1 PUSH0 MSTORE PUSH1 0x40 PUSH0 KECCAK256 PUSH0 SWAP2 POP SWAP1 POP DUP1 PUSH0 ADD PUSH0 SWAP1 SLOAD SWAP1 PUSH2 0x100 EXP SWAP1 DIV PUSH20 0xFFFFFFFFFFFFFFFFFFFFFFFFFFFFFFFFFFFFFFFF AND SWAP1 DUP1 PUSH1 0x1 ADD SLOAD SWAP1 POP DUP3 JUMP JUMPDEST PUSH0 DUP1 PUSH0 DUP1 PUSH0 DUP6 DUP2 MSTORE PUSH1 0x20 ADD SWAP1 DUP2 MSTORE PUSH1 0x20 ADD PUSH0 KECCAK256 PUSH1 0x1 ADD SLOAD SUB PUSH2 0x2CD JUMPI PUSH1 0x40 MLOAD PUSH32 0x8C379A000000000000000000000000000000000000000000000000000000000 DUP2 MSTORE PUSH1 0x4 ADD PUSH2 0x2C4 SWAP1 PUSH2 0x57F JUMP JUMPDEST PUSH1 0x40 MLOAD DUP1 SWAP2 SUB SWAP1 REVERT JUMPDEST PUSH0 DUP1 PUSH0 DUP6 DUP2 MSTORE PUSH1 0x20 ADD SWAP1 DUP2 MSTORE PUSH1 0x20 ADD PUSH0 KECCAK256 PUSH1 0x40 MLOAD DUP1 PUSH1 0x40 ADD PUSH1 0x40 MSTORE SWAP1 DUP2 PUSH0 DUP3 ADD PUSH0 SWAP1 SLOAD SWAP1 PUSH2 0x100 EXP SWAP1 DIV PUSH20 0xFFFFFFFFFFFFFFFFFFFFFFFFFFFFFFFFFFFFFFFF AND PUSH20 0xFFFFFFFFFFFFFFFFFFFFFFFFFFFFFFFFFFFFFFFF AND PUSH20 0xFFFFFFFFFFFFFFFFFFFFFFFFFFFFFFFFFFFFFFFF AND DUP2 MSTORE PUSH1 0x20 ADD PUSH1 0x1 DUP3 ADD SLOAD DUP2 MSTORE POP POP SWAP1 POP DUP1 PUSH0 ADD MLOAD DUP2 PUSH1 0x20 ADD MLOAD SWAP3 POP SWAP3 POP POP SWAP2 POP SWAP2 JUMP JUMPDEST PUSH0 DUP1 REVERT JUMPDEST PUSH0 DUP2 SWAP1 POP SWAP2 SWAP1 POP JUMP JUMPDEST PUSH2 0x372 DUP2 PUSH2 0x360 JUMP JUMPDEST DUP2 EQ PUSH2 0x37C JUMPI PUSH0 DUP1 REVERT JUMPDEST POP JUMP JUMPDEST PUSH0 DUP2 CALLDATALOAD SWAP1 POP PUSH2 0x38D DUP2 PUSH2 0x369 JUMP JUMPDEST SWAP3 SWAP2 POP POP JUMP JUMPDEST PUSH0 PUSH1 0x20 DUP3 DUP5 SUB SLT ISZERO PUSH2 0x3A8 JUMPI PUSH2 0x3A7 PUSH2 0x35C JUMP JUMPDEST JUMPDEST PUSH0 PUSH2 0x3B5 DUP5 DUP3 DUP6 ADD PUSH2 0x37F JUMP JUMPDEST SWAP2 POP POP SWAP3 SWAP2 POP POP JUMP JUMPDEST PUSH0 PUSH20 0xFFFFFFFFFFFFFFFFFFFFFFFFFFFFFFFFFFFFFFFF DUP3 AND SWAP1 POP SWAP2 SWAP1 POP JUMP JUMPDEST PUSH0 PUSH2 0x3E7 DUP3 PUSH2 0x3BE JUMP JUMPDEST SWAP1 POP SWAP2 SWAP1 POP JUMP JUMPDEST PUSH2 0x3F7 DUP2 PUSH2 0x3DD JUMP JUMPDEST DUP3 MSTORE POP POP JUMP JUMPDEST PUSH0 DUP2 SWAP1 POP SWAP2 SWAP1 POP JUMP JUMPDEST PUSH2 0x40F DUP2 PUSH2 0x3FD JUMP JUMPDEST DUP3 MSTORE POP POP JUMP JUMPDEST PUSH0 PUSH1 0x40 DUP3 ADD SWAP1 POP PUSH2 0x428 PUSH0 DUP4 ADD DUP6 PUSH2 0x3EE JUMP JUMPDEST PUSH2 0x435 PUSH1 0x20 DUP4 ADD DUP5 PUSH2 0x406 JUMP JUMPDEST SWAP4 SWAP3 POP POP POP JUMP JUMPDEST PUSH0 DUP3 DUP3 MSTORE PUSH1 0x20 DUP3 ADD SWAP1 POP SWAP3 SWAP2 POP POP JUMP JUMPDEST PUSH32 0x496E76616C696420646F63756D656E7420686173680000000000000000000000 PUSH0 DUP3 ADD MSTORE POP JUMP JUMPDEST PUSH0 PUSH2 0x480 PUSH1 0x15 DUP4 PUSH2 0x43C JUMP JUMPDEST SWAP2 POP PUSH2 0x48B DUP3 PUSH2 0x44C JUMP JUMPDEST PUSH1 0x20 DUP3 ADD SWAP1 POP SWAP2 SWAP1 POP JUMP JUMPDEST PUSH0 PUSH1 0x20 DUP3 ADD SWAP1 POP DUP2 DUP2 SUB PUSH0 DUP4 ADD MSTORE PUSH2 0x4AD DUP2 PUSH2 0x474 JUMP JUMPDEST SWAP1 POP SWAP2 SWAP1 POP JUMP JUMPDEST PUSH32 0x446F63756D656E7420616C7265616479207369676E6564000000000000000000 PUSH0 DUP3 ADD MSTORE POP JUMP JUMPDEST PUSH0 PUSH2 0x4E8 PUSH1 0x17 DUP4 PUSH2 0x43C JUMP JUMPDEST SWAP2 POP PUSH2 0x4F3 DUP3 PUSH2 0x4B4 JUMP JUMPDEST PUSH1 0x20 DUP3 ADD SWAP1 POP SWAP2 SWAP1 POP JUMP JUMPDEST PUSH0 PUSH1 0x20 DUP3 ADD SWAP1 POP DUP2 DUP2 SUB PUSH0 DUP4 ADD MSTORE PUSH2 0x515 DUP2 PUSH2 0x4DC JUMP JUMPDEST SWAP1 POP SWAP2 SWAP1 POP JUMP JUMPDEST PUSH0 PUSH1 0x20 DUP3 ADD SWAP1 POP PUSH2 0x52F PUSH0 DUP4 ADD DUP5 PUSH2 0x406 JUMP JUMPDEST SWAP3 SWAP2 POP POP JUMP JUMPDEST PUSH32 0x446F63756D656E74206E6F74207369676E656400000000000000000000000000 PUSH0 DUP3 ADD MSTORE POP JUMP JUMPDEST PUSH0 PUSH2 0x569 PUSH1 0x13 DUP4 PUSH2 0x43C JUMP JUMPDEST SWAP2 POP PUSH2 0x574 DUP3 PUSH2 0x535 JUMP JUMPDEST PUSH1 0x20 DUP3 ADD SWAP1 POP SWAP2 SWAP1 POP JUMP JUMPDEST PUSH0 PUSH1 0x20 DUP3 ADD SWAP1 POP DUP2 DUP2 SUB PUSH0 DUP4 ADD MSTORE PUSH2 0x596 DUP2 PUSH2 0x55D JUMP JUMPDEST SWAP1 POP SWAP2 SWAP1 POP JUMP INVALID LOG2 PUSH5 0x6970667358 0x22 SLT KECCAK256 0xDF 0xE9 PUSH23 0x31EB3CDF6439ABEABD5F870B006BBF3ECAF0B573F4EFAE LT 0xAC AND COINBASE DUP7 0xFB PUSH5 0x736F6C6343 STOP ADDMOD BYTE STOP CALLER "
				},
				"gasEstimates": {
					"creation": {
						"codeDepositCost": "298200",
						"executionCost": "335",
						"totalCost": "298535"
					},
					"external": {
						"documents(bytes32)": "5060",
						"signDocument(bytes32)": "51105",
						"verifyDocument(bytes32)": "7401"
					}
				},
				"methodIdentifiers": {
					"documents(bytes32)": "2b2805db",
					"signDocument(bytes32)": "166cba38",
					"verifyDocument(bytes32)": "fe35089f"
				}
			},
			"storageLayout": {
				"storage": [
					{
						"astId": 19,
						"contract": "contracts/DigitalSign.sol:DigitalSignature",
						"label": "documents",
						"offset": 0,
						"slot": "0",
						"type": "t_mapping(t_bytes32,t_struct(Document)14_storage)"
					}
				],
				"types": {
					"t_address": {
						"encoding": "inplace",
						"label": "address",
						"numberOfBytes": "20"
					},
					"t_bytes32": {
						"encoding": "inplace",
						"label": "bytes32",
						"numberOfBytes": "32"
					},
					"t_mapping(t_bytes32,t_struct(Document)14_storage)": {
						"encoding": "mapping",
						"key": "t_bytes32",
						"label": "mapping(bytes32 => struct DigitalSignature.Document)",
						"numberOfBytes": "32",
						"value": "t_struct(Document)14_storage"
					},
					"t_struct(Document)14_storage": {
						"encoding": "inplace",
						"label": "struct DigitalSignature.Document",
						"members": [
							{
								"astId": 11,
								"contract": "contracts/DigitalSign.sol:DigitalSignature",
								"label": "signer",
								"offset": 0,
								"slot": "0",
								"type": "t_address"
							},
							{
								"astId": 13,
								"contract": "contracts/DigitalSign.sol:DigitalSignature",
								"label": "timestamp",
								"offset": 0,
								"slot": "1",
								"type": "t_uint256"
							}
						],
						"numberOfBytes": "64"
					},
					"t_uint256": {
						"encoding": "inplace",
						"label": "uint256",
						"numberOfBytes": "32"
					}
				}
			},
			"userdoc": {
				"kind": "user",
				"methods": {},
				"version": 1
			}
		}
	}
}